:03000000020A43AE
:0C0A4300787FE4F6D8FD758117020A8A5E
:1009B4000D0A3D3E2044554E47204D4154204B489E
:1009C40041552120515541542044414E4720515511
:1009D40041592E0D0A000D0A3D3E20534149204D38
:1009E4004154204B484155212054415420515541F4
:1009F400542E0D0A004E686170206C6169206D618F
:100A040074206B6861753A200048652074686F6EC5
:100A140067206B686F6920646F6E672E2E2E0D0A37
:100A240000567569206C6F6E67206E686170206D6A
:0F0A34006174206B686175203520736F3A200064
:0B0BE0000608313233343500011400E8
:040B9F007F147E0041
:100BA300E4FDFCC3ED9FEC9E5015E4FBFA0BBB0088
:0F0BB300010AEB64714A70F50DBD00010C80E47E
:010BC2002210
:0C0BD400758920758DFD759850D28E2219
:080BEC008F993099FDC2992296
:100B7A008B158A168917AB15AA16A91712080060D1
:100B8A00130517E5177002051614F9120800FF126B
:050B9A000BEC80E222DB
:100B4000E51464057033F513780E7C00FDFB7A0024
:100B50007908120997EF700AD2A07BFF7A0979B45D
:100B60008008C2A07BFF7A0979DA120B7AE4F514C7
:0A0B70007BFF7A0979F9120B7A2253
:100BC300AE07120BEC740E2514F8A6060514020BDF
:010BD30040E1
:100ACF00120BD47590FFC2A07BFF7A0A790D120B1F
:100ADF007A7BFF7A0A7925120B7A20900E120B9FE0
:100AEF002090087F31120BC33090FD20910E120B16
:100AFF009F2091087F32120BC33091FD20920E126E
:100B0F000B9F2092087F33120BC33092FD20930E60
:100B1F00120B9F2093087F34120BC33093FD209448
:100B2F00B9120B9F2094B37F35120BC32094AB8067
:010B3F00FBBA
:100A4F00020ACFE493A3F8E493A34003F68001F2E4
:100A5F0008DFF48029E493A3F85407240CC8C333A8
:100A6F00C4540F4420C8834004F456800146F6DF77
:100A7F00E4800B0102040810204080900BE0E47E1C
:100A8F00019360BCA3FF543F30E509541FFEE4936C
:100A9F00A360010ECF54C025E060A840B8E493A333
:100AAF00FAE493A3F8E493A3C8C582C8CAC583CA5E
:100ABF00F0A3C8C582C8CAC583CADFE9DEE780BE16
:010BEB000009
:10080000BB010689828A83E0225002E722BBFE02F6
:09081000E32289828A83E4932229
:10081900E3F5F009E208B5F06D606B80F3E3F5F0FC
:1008290009E608B5F060605E80F387F009E608B56F
:10083900F054605280F487F009E208B5F048604648
:1008490080F488828C8387F009E0A3B5F03860369C
:1008590080F488828C8387F009E493A3B5F027603C
:100869002580F388828C83E3F5F009E0A3B5F016BF
:10087900601480F388828C83E3F5F009E493A3B5CF
:10088900F004600280F2020944808580E7808E804E
:10089900D2803C8015806C807E809B80B5808B8067
:1008A900A1804F8070803A02095089828A83ECFACC
:1008B900E493F5F0A3C8C582C8CCC583CCE493A35F
:1008C900C8C582C8CCC583CCB5F070606E80E1899B
:1008D900828A83E493F5F0A3E208B5F05E605C8058
:1008E900F289828A83E0F5F0A3E608B5F04D604B02
:1008F90080F389828A83E0F5F0A3E208B5F03C60D1
:100909003A80F389828A83E493F5F0A3E608B5F087
:100919002A602880F2805389828A83ECFAE493F56D
:10092900F0A3C8C582C8CCC583CCE0A3C8C582C81A
:10093900CCC583CCB5F004600280E27FFFB5F0023C
:100949000F2240027F012289828A83ECFAE0F5F0C6
:10095900A3C8C582C8CCC583CCE0A3C8C582C8CC0E
:10096900C583CCB5F0D560D380E389828A83ECFA5C
:10097900E0F5F0A3C8C582C8CCC583CCE493A3C86D
:10098900C582C8CCC583CCB5F0B160AF80E288F030
:10099900ED2402B4040050A3F582EB2402B4040050
:0B09A90050992323458223900892738D
:00000001FF
